:020000040000FA
:100000000C9462000C948A000C948A000C948A0070
:100010000C948A000C948A000C948A000C948A0038
:100020000C948A000C948A000C948A000C948A0028
:100030000C948A000C948A000C948A000C948A0018
:100040000C94CF030C948A000C949D030C947703BA
:100050000C948A000C948A000C948A000C948A00F8
:100060000C948A000C948A000000000024002700F1
:100070002A0000000000250028002B0000000000DE
:1000800023002600290004040404040404040202DA
:100090000202020203030303030301020408102007
:1000A0004080010204081020010204081020000012
:1000B0000008000201000003040700000000000027
:1000C0000000190411241FBECFEFD8E0DEBFCDBF62
:1000D00011E0A0E0B1E0E2ECF9E102C005900D9280
:1000E000A63EB107D9F723E0A6EEB1E001C01D920C
:1000F000AA30B207E1F710E0C2E6D0E004C02197D1
:10010000FE010E94D90CC136D107C9F70E94A6048E
:100110000C94DF0C0C94000096E0899FD001112410
:10012000A556BD4F90967C936E935F9791E0919604
:100130009C939197E0910803F09109039091070334
:10014000992339F0309751F0811108C08091B7029E
:100150000994309719F05C968C91FACF0895CF925C
:10016000DF92EF92FF920F931F9396E0899FF00129
:100170001124E556FD4F11A2278D30A12130310504
:1001800051F178F02230310509F451C023303105A6
:1001900009F452C01F910F91FF90EF90DF90CF9024
:1001A00008956623B9F361E070E00E948C002FB7D8
:1001B000F8948091FA019091FB01A091FC01B0911B
:1001C000FD012FBF8093F3029093F402A093F502F8
:1001D000B093F602DFCF9FB7F894C090FA01D090A9
:1001E000FB01E090FC01F090FD019FBF0091F30244
:1001F0001091F4022091F5023091F602C01AD10A52
:10020000E20AF30A009105031091060330E020E0B2
:100210000C151D052E053F0550F462E070E01F919E
:100220000F91FF90EF90DF90CF900C948C006111B4
:10023000B1CF63E070E0F3CF70E060E0F0CFAF9259
:10024000BF92CF92DF92EF92FF920F931F93CF93C3
:10025000DF936C017B018B01040F151FEB015E0125
:10026000AE18BF08C017D10759F06991D601ED91BA
:10027000FC910190F081E02DC6010995892B79F759
:10028000C501DF91CF911F910F91FF90EF90DF900B
:10029000CF90BF90AF900895FC01538D448D252FD2
:1002A00030E0842F90E0821B930B541710F0CF9610
:1002B000089501970895FC01918D828D981761F042
:1002C000A28DAE0FBF2FB11D5D968C91928D9F5F59
:1002D0009F73928F90E008958FEF9FEF0895FC0138
:1002E000918D828D981731F0828DE80FF11D858DEB
:1002F00090E008958FEF9FEF0895FC01918D228D7E
:10030000892F90E0805C9F4F821B91098F73992702
:1003100008958EEF91E00E947D0121E0892B09F480
:1003200020E0822F089580E090E0892B29F00E9440
:10033000890181110C9400000895FC01A48DA80F7F
:10034000B92FB11DA35ABF4F2C91848D90E0019617
:100350008F739927848FA689B7892C93A089B18937
:100360008C91837080648C93938D848D981306C0D8
:100370000288F389E02D80818F7D80830895EF923C
:10038000FF920F931F93CF93DF93EC0181E0888F4F
:100390009B8D8C8D98131AC0E889F989808185FF1F
:1003A00015C09FB7F894EE89FF896083E889F989C1
:1003B00080818370806480839FBF81E090E0DF91C3
:1003C000CF911F910F91FF90EF900895F62E0B8D16
:1003D00010E00F5F1F4F0F731127E02E8C8D8E11D1
:1003E0000CC00FB607FCFACFE889F989808185FF38
:1003F000F5CFCE010E949D01F1CFEB8DEC0FFD2FCB
:10040000F11DE35AFF4FF0829FB7F8940B8FEA89F2
:10041000FB8980818062CFCFCF93DF93EC01888D01
:100420008823B9F0AA89BB89E889F9898C9185FD6F
:1004300003C0808186FD0DC00FB607FCF7CF8C91FD
:1004400085FFF2CF808185FFEDCFCE010E949D0117
:10045000E9CFDF91CF910895833081F028F4813086
:1004600099F08230A9F008958730A9F08830C9F05A
:100470008430B1F4809180008F7D03C08091800032
:100480008F7780938000089584B58F7784BD089519
:1004900084B58F7DFBCF8091B0008F778093B000C3
:1004A00008958091B0008F7DF9CFCF93DF93282FEF
:1004B00030E0F901E255FF4F8491F901E656FF4F14
:1004C000D491F901EA57FF4FC491CC23A1F08111D7
:1004D0000E942C02EC2FF0E0EE0FFF1FE458FF4FBC
:1004E000A591B491EC91ED2381E090E009F480E0D6
:1004F000DF91CF91089580E090E0FACF862F0C94A1
:1005000055021F93CF93DF93282F30E0F901E25576
:10051000FF4F8491F901E656FF4FD491F901EA5754
:10052000FF4FC491CC23A9F0162F81110E942C02F9
:10053000EC2FF0E0EE0FFF1FEE58FF4FA591B491A6
:100540008FB7F894EC91111108C0D095DE23DC939D
:100550008FBFDF91CF911F910895DE2BF8CF862FAB
:10056000642F0C948102CF93DF9390E0FC01E65658
:10057000FF4F24918A579F4FFC0184918823C9F033
:1005800090E0880F991FFC01E859FF4FA591B491A5
:10059000FC01EE58FF4FC591D49161110DC09FB77A
:1005A000F8948C91209582238C938881282328832A
:1005B0009FBFDF91CF910895623051F49FB7F894B7
:1005C0003C91822F809583238C93E8812E2BEFCF53
:1005D0008FB7F894EC912E2B2C938FBFEACF862FF8
:1005E000642F0C94B3023FB7F8948091E701909187
:1005F000E801A091E901B091EA0126B5A89B05C0E8
:100600002F3F19F00196A11DB11D3FBFBA2FA92F91
:10061000982F8827BC01CD01620F711D811D911D8E
:1006200042E0660F771F881F991F4A95D1F70895FA
:10063000FC0101900020E9F73197AF01481B590BED
:10064000BC018EEF91E00C941F018F929F92AF92AC
:10065000BF920F931F93CF93DF93CDB7DEB7A197D0
:100660000FB6F894DEBF0FBECDBF19A2423008F41A
:100670004AE08E010F5D1F4F842E912CB12CA12CCE
:10068000A50194010E94B70CE62FB901CA01EA3016
:10069000F4F4E05DD801EE938D01232B242B252B60
:1006A00079F790E080E0109719F0CD010E941803CF
:1006B000A1960FB6F894DEBF0FBECDBFDF91CF91EC
:1006C0001F910F91BF90AF909F908F900895E95C1C
:1006D000E1CFCF93DF930E941803EC0184E391E014
:1006E0000E9418038C0F9D1FDF91CF9108951F92D8
:1006F0000F920FB60F9211242F933F934F935F9356
:100700006F937F938F939F93AF93BF93EF93FF93D9
:100710008EEF91E00E949D01FF91EF91BF91AF910B
:100720009F918F917F916F915F914F913F912F9109
:100730000F900FBE0F901F9018951F920F920FB63B
:100740000F9211242F938F939F93EF93FF93E09138
:100750000E02F0910F028081E0911402F0911502D7
:1007600082FD1BC09081809117028F5F8F73209153
:100770001802821741F0E0911702F0E0E250FE4FBC
:10078000958F80931702FF91EF919F918F912F91F9
:100790000F900FBE0F901F9018958081F4CF1F927D
:1007A0000F920FB60F9211242F933F938F939F9325
:1007B000AF93BF938091FA019091FB01A091FC014E
:1007C000B091FD013091E60123E0230F2D3758F55C
:1007D0000196A11DB11D2093E6018093FA0190932B
:1007E000FB01A093FC01B093FD018091E701909182
:1007F000E801A091E901B091EA010196A11DB11DA6
:100800008093E7019093E801A093E901B093EA0196
:10081000BF91AF919F918F913F912F910F900FBEFC
:100820000F901F90189526E8230F0296A11DB11D69
:10083000D2CF109201021092000288EE93E0A0E065
:10084000B0E08093020290930302A0930402B0935D
:1008500005028CE191E09093FF018093FE0185EC0D
:1008600090E090930B0280930A0284EC90E09093C6
:100870000D0280930C0280EC90E090930F02809325
:100880000E0281EC90E0909311028093100282ECB2
:1008900090E0909313028093120286EC90E0909384
:1008A00015028093140210921702109218021092EF
:1008B000190210921A0210929D021092A102109237
:1008C000A0021092A2028EE291E090939C0280938B
:1008D0009B02E7EBF2E010821482138215823696B7
:1008E00082E0E33FF807B9F784E091E09093FE02DD
:1008F0008093FD0280E091E0909300038093FF02DB
:1009000084E0809301038093020388E091E0909358
:10091000FC028093FB028AE090E0909304038093B2
:10092000030384EF91E090930603809305031092F4
:100930000903109208031092F7021092F802109225
:10094000F9021092FA02109207030895789484B580
:10095000826084BD84B5816084BD85B5826085BDBB
:1009600085B5816085BD80916E00816080936E0049
:10097000109281008091810082608093810080913B
:1009800081008160809381008091800081608093EC
:1009900080008091B10084608093B1008091B000AC
:1009A00081608093B00080917A00846080937A00A7
:1009B00080917A00826080937A0080917A008160D1
:1009C00080937A0080917A00806880937A001092F8
:1009D000C100E0910E02F0910F0282E08083E0916D
:1009E0000A02F0910B021082E0910C02F0910D02CC
:1009F0008FEC808310921602E0911202F0911302A4
:100A000086E08083E0911002F09111028081806184
:100A10008083E0911002F0911102808188608083D0
:100A2000E0911002F0911102808180688083E09152
:100A30001002F091110280818F7D8083412C512C16
:100A40003201439422242A94322C21E0209307037C
:100A50008FB7F8944091FA015091FB016091FC012D
:100A60007091FD018FBF8091F7029091F802A091E3
:100A7000F902B091FA02481B590B6A0B7B0B80916B
:100A8000030390910403B0E0A0E084179507A60744
:100A9000B70708F05BC1C0E080910103C81760F49C
:100AA000E091FD02F091FE02EC0FF11D62E0808109
:100AB0000E94B302CF5FF0CF912C80910203981671
:100AC00008F05FC0092D10E0E091FF02F0910003F3
:100AD000E00FF11F61E080810E94B302E091FF020C
:100AE000F0910003E00FF11F60E080810E9481021D
:100AF000D301C201092C04C0880F991FAA1FBB1F74
:100B00000A94D2F75C017C01E094F094812C8091EE
:100B100001038816F8F4C82DD0E0E091FD02F091B1
:100B2000FE02EC0FFD1F80810E9455022496CC0F1F
:100B3000DD1FC556DD4F892B41F4888199818A29B3
:100B40009B29998388838394E2CF888199818E2120
:100B50009F21F7CFE091FF02F0910003E00FF11F1A
:100B600061E080810E9481028091FF0290910003E8
:100B7000080F191F60E0F80180810E94B30293946E
:100B80009CCFCBE9D2E0FE01878D90A1892B21F487
:100B9000148E368E258E11A2369622E0E73DF2079E
:100BA00099F710E080910103181708F053C000E096
:100BB000E12EF12CEE0CFF1CC7018D559D4F7C01E1
:100BC00020910203021708F043C0F7016081718190
:100BD000002E02C0769567950A94E2F7129F900165
:100BE0001124200F311DEBE9F2E080E0458D568D98
:100BF0002417350709F47DC48F5F36968A30B1F724
:100C000060FF24C0EBE9F2E090E080E0448D411108
:100C100018C0E091FB02F091FC02E20FF31F40814B
:100C200056E0589FF001599FF00D1124E556FD4FF5
:100C3000448F368F258F10A2178E61E00E94AF007F
:100C400005C0019636968A30910501F70F5FB8CF3F
:100C50001F5FA8CF80E099A19111892F269692E07D
:100C6000C73DD907C1F79FB7F8944091FA01509159
:100C7000FB016091FC017091FD019FBF4093F70261
:100C80005093F8026093F9027093FA02882309F4F2
:100C90005DC08091BC02882309F458C08091BA02DB
:100CA0009091BB02019709F051C08091B7028093E7
:100CB000F901811150C08091F8018823C1F1809120
:100CC000F7018B3209F043C32091EF013091F0011D
:100CD0004091F1015091F2016091F3017091F401A2
:100CE0008091F5019091F6010E947C0A6093EB01DE
:100CF0007093EC018093ED019093EE018090EB01F5
:100D00009090EC01A090ED01B090EE01A50194014E
:100D1000C501B4010E94B20C882309F458C389EDBF
:100D200091E00E94180384E391E00E94180310925E
:100D3000F80180E090E0892B09F487CE0E948901B8
:100D4000882309F482CE0E9400007FCE1092070310
:100D50001092F901B0CF8336F1F487E391E00E945D
:100D600069031092EF011092F0011092F1011092BC
:100D7000F2011092F3011092F4011092F501109219
:100D8000F6011092EB011092EC011092ED0110921D
:100D9000EE011092F8018091F901813309F585E4A3
:100DA00091E00E9469038090EB019090EC01A0908B
:100DB000ED01B090EE0120E030E0A901C501B401E1
:100DC0000E94E80A8111DEC180E090E0A0E8BFE364
:100DD0008093EB019093EC01A093ED01B093EE01B1
:100DE0008091F901843309F58EE491E00E94690352
:100DF0008090EB019090EC01A090ED01B090EE019D
:100E000020E030E0A901C501B4010E94E80A811187
:100E1000D0C180E090E0A0E8B0E48093EB01909333
:100E2000EC01A093ED01B093EE018091F9018733BD
:100E300009F587E591E00E9469038090EB019090AD
:100E4000EC01A090ED01B090EE0120E030E0A901AE
:100E5000C501B4010E94E80A8111C2C180E090E09E
:100E6000A0EEB0E48093EB019093EC01A093ED0130
:100E7000B093EE018091F9018033E9F480E691E0CE
:100E80000E9469038090EB019090EC01A090ED012D
:100E9000B090EE0120E030E0A901C501B4010E944C
:100EA000E80A8111B4C11092EB011092EC0110928A
:100EB000ED011092EE018091F901823309F589E686
:100EC00091E00E9469038090EB019090EC01A0906A
:100ED000ED01B090EE0120E030E0A901C501B401C0
:100EE0000E94E80A8111A9C180E090E0A0E0B0E48E
:100EF0008093EB019093EC01A093ED01B093EE0190
:100F00008091F901853309F582E791E00E94690338
:100F10008090EB019090EC01A090ED01B090EE017B
:100F200020E030E0A901C501B4010E94E80A811166
:100F30009BC180E090E0A0EAB0E48093EB01909345
:100F4000EC01A093ED01B093EE018091F90188339B
:100F500009F58BE791E00E9469038090EB01909086
:100F6000EC01A090ED01B090EE0120E030E0A9018D
:100F7000C501B4010E94E80A81118DC180E090E0B2
:100F8000A0E0B1E48093EB019093EC01A093ED011C
:100F9000B093EE018091F9018D33B9F484E891E0CA
:100FA0000E9469038091EB019091EC01A091ED0109
:100FB000B091EE018093EF019093F001A093F101C5
:100FC000B093F201E1E0E093F8018091F9018333FD
:100FD00009F581E991E00E9469038090EB0190900E
:100FE000EC01A090ED01B090EE0120E030E0A9010D
:100FF000C501B4010E94E80A811164C180E090E05B
:10100000A0E4B0E48093EB019093EC01A093ED0198
:10101000B093EE018091F901863309F58AE991E0F8
:101020000E9469038090EB019090EC01A090ED018B
:10103000B090EE0120E030E0A901C501B4010E94AA
:10104000E80A811156C180E090E0A0ECB0E4809302
:10105000EB019093EC01A093ED01B093EE01809130
:10106000F901893309F583EA91E00E9469038090D0
:10107000EB019090EC01A090ED01B090EE0120E02A
:1010800030E0A901C501B4010E94E80A811148C1FC
:1010900080E090E0A0E1B1E48093EB019093EC015B
:1010A000A093ED01B093EE01C091F9018C2F8D7FDB
:1010B0008D3229F086ED8C0F823008F0FCCD8091C6
:1010C000EB019091EC01A091ED01B091EE018093C4
:1010D000F3019093F401A093F501B093F6011092FF
:1010E000EB011092EC011092ED011092EE01CB3267
:1010F00031F48CEA91E00E946903C093F701C0913A
:10110000F901CD3231F485EB91E00E946903C0937F
:10111000F701C091F901CA3231F481EC91E00E94EB
:101120006903C093F701C091F901CF3231F480ED2A
:1011300091E00E946903C093F7010E94F3026B01E2
:101140007C0184E6882E912CA12CB12C0E94F30204
:101150006C197D098E099F09683E734081059105D0
:10116000A8F3F1E08F1A9108A108B10828EEC20E89
:1011700023E0D21EE11CF11C81149104A104B104EE
:1011800029F799CD20E030E040E251E4C501B401F7
:101190000E94450C20E030E040E85FE30E947C0ABA
:1011A0006093EB017093EC018093ED019093EE015D
:1011B00017CE20E030E040E251E4C501B4010E94C6
:1011C000450C20E030E040E850E40E947C0A609347
:1011D000EB017093EC018093ED019093EE0125CE2D
:1011E00020E030E040E251E4C501B4010E94450C2A
:1011F00020E030E040EE50E40E947C0A6093EB0176
:101200007093EC018093ED019093EE0133CE20E0DA
:1012100030E040E251E4C501B4010E94450C20E0F9
:1012200030E0A9010E947C0A6093EB017093EC010D
:101230008093ED019093EE013ECE20E030E040E25D
:1012400051E4C501B4010E94450C20E030E040E0CB
:1012500050E40E947C0A6093EB017093EC01809350
:10126000ED019093EE014CCE20E030E040E251E4FD
:10127000C501B4010E94450C20E030E040EA50E492
:101280000E947C0A6093EB017093EC018093ED0166
:101290009093EE015ACE20E030E040E251E4C501E7
:1012A000B4010E94450C20E030E040E051E40E948F
:1012B0007C0A6093EB017093EC018093ED019093B5
:1012C000EE0168CE20E030E040E251E4C501B40117
:1012D0000E94450C20E030E040E450E40E947C0A8B
:1012E0006093EB017093EC018093ED019093EE011C
:1012F00091CE20E030E040E251E4C501B4010E940B
:10130000450C20E030E040EC50E40E947C0A609301
:10131000EB017093EC018093ED019093EE019FCE71
:1013200020E030E040E251E4C501B4010E94450CE8
:1013300020E030E040E151E40E947C0A6093EB0140
:101340007093EC018093ED019093EE01ADCE8D3260
:1013500099F42091EF013091F0014091F101509109
:10136000F2016091F3017091F4018091F501909187
:10137000F6010E947B0ABACC8A3299F42091EF01DF
:101380003091F0014091F1015091F2016091F3012F
:101390007091F4018091F5019091F6010E94450C45
:1013A000A5CC8F3209F0AACC2091EF013091F00149
:1013B0004091F1015091F2016091F3017091F401BB
:1013C0008091F5019091F6010E94ED0A8FCC750194
:1013D0006401E894F7F82FEF3FEF4FE75FE7C701AD
:1013E000B6010E94B20C81110DC02FEF3FEF4FE705
:1013F0005FE7C701B6010E94E80A18161CF48DEDDC
:1014000091E08FCC2FEF3FEF4FE75FE4C501B401D0
:101410000E94400C18161CF481EE91E082CC2FEF54
:101420003FEF4FE75FECC501B4010E94E80A87FD7A
:10143000F3CF20E030E0A901C501B4010E94E80A21
:1014400087FF09C06DE28EEF91E00E94BF01B7FAFD
:10145000B094B7F8B0942AE037ED43EA5BE3C501F6
:10146000B4010E947C0A6B017C010E945F0B4B015E
:101470005C010E948E0B9B01AC01C701B6010E946A
:101480007B0A6B017C014AE0C501B4010E9425037F
:101490006EE28EEF91E00E94BF0120E030E040E27A
:1014A00051E4C701B6010E94450C6B017C010E940A
:1014B0005F0B4B01B12CA12C4AE0C501B4010E9485
:1014C0002503C501B4010E948E0B9B01AC01C7012D
:1014D000B6010E947B0A20E030E040E251E40E9425
:1014E000450C0E945F0B90E080E04AE00E942503DB
:1014F0001ACC6170A3CB5058BB27AA270E94930A2D
:101500000C94060C0E94F80B38F00E94FF0B20F0A0
:1015100039F49F3F19F426F40C94F50B0EF4E09582
:10152000E7FB0C94EF0BE92F0E94170C58F3BA1746
:10153000620773078407950720F079F4A6F50C94E9
:10154000390C0EF4E0950B2EBA2FA02D0B01B9012A
:1015500090010C01CA01A0011124FF27591B99F029
:10156000593F50F4503E68F11A16F040A22F232F35
:10157000342F4427585FF3CF469537952795A79585
:10158000F0405395C9F77EF41F16BA0B620B730B2C
:10159000840BBAF09150A1F0FF0FBB1F661F771F9D
:1015A000881FC2F70EC0BA0F621F731F841F48F452
:1015B000879577956795B795F7959E3F08F0B0CFDB
:1015C0009395880F08F09927EE0F979587950895C2
:1015D0000E94CB0B08F481E008950E94010B0C944B
:1015E000060C0E94FF0B58F00E94F80B40F029F403
:1015F0005F3F29F00C94EF0B51110C943A0C0C94B2
:10160000F50B0E94170C68F39923B1F3552391F35E
:10161000951B550BBB27AA2762177307840738F061
:101620009F5F5F4F220F331F441FAA1FA9F335D0BE
:101630000E2E3AF0E0E832D091505040E695001C72
:10164000CAF72BD0FE2F29D0660F771F881FBB1F2C
:10165000261737074807AB07B0E809F0BB0B802D0A
:10166000BF01FF2793585F4F3AF09E3F510578F036
:101670000C94EF0B0C943A0C5F3FE4F3983ED4F3D8
:10168000869577956795B795F7959F5FC9F7880F0A
:10169000911D9695879597F90895E1E0660F771F5C
:1016A000881FBB1F621773078407BA0720F0621BED
:1016B000730B840BBA0BEE1F88F7E09508950E9418
:1016C0001F0C88F09F5798F0B92F9927B751B0F0A9
:1016D000E1F0660F771F881F991F1AF0BA95C9F7B6
:1016E00014C0B13091F00E94390CB1E008950C940F
:1016F000390C672F782F8827B85F39F0B93FCCF3C2
:10170000869577956795B395D9F73EF49095809532
:10171000709561957F4F8F4F9F4F0895E89409C052
:1017200097FB3EF490958095709561957F4F8F4F14
:101730009F4F9923A9F0F92F96E9BB279395F6952A
:10174000879577956795B795F111F8CFFAF4BB0FA8
:1017500011F460FF1BC06F5F7F4F8F4F9F4F16C00C
:10176000882311F096E911C0772321F09EE8872F96
:10177000762F05C0662371F096E8862F70E060E052
:101780002AF09A95660F771F881FDAF7880F9695CB
:10179000879597F90895990F0008550FAA0BE0E86F
:1017A000FEEF16161706E807F907C0F01216130623
:1017B000E407F50798F0621B730B840B950B39F463
:1017C0000A2661F0232B242B252B21F408950A26C9
:1017D00009F4A140A6958FEF811D811D089597F909
:1017E0009F6780E870E060E008959FEF80EC0895C7
:1017F00000240A94161617061806090608950024F0
:101800000A9412161306140605060895092E039469
:10181000000C11F4882352F0BB0F40F4BF2B11F4DD
:1018200060FF04C06F5F7F4F8F4F9F4F089557FD3C
:101830009058440F551F59F05F3F71F04795880F3E
:1018400097FB991F61F09F3F79F0879508951216D5
:1018500013061406551FF2CF4695F1DF08C0161681
:1018600017061806991FF1CF869571056105089432
:101870000895E894BB2766277727CB0197F9089549
:101880000E94CB0B08F48FEF08950E94580C0C9423
:10189000060C0E94F80B38F00E94FF0B20F09523F5
:1018A00011F00C94EF0B0C94F50B11240C943A0CE2
:1018B0000E94170C70F3959FC1F3950F50E0551FD0
:1018C000629FF001729FBB27F00DB11D639FAA2795
:1018D000F00DB11DAA1F649F6627B00DA11D661FE4
:1018E000829F2227B00DA11D621F739FB00DA11D05
:1018F000621F839FA00D611D221F749F3327A00DBF
:10190000611D231F849F600D211D822F762F6A2F5A
:1019100011249F5750409AF0F1F088234AF0EE0FBF
:10192000FF1FBB1F661F771F881F91505040A9F7EC
:101930009E3F510580F00C94EF0B0C943A0C5F3FE6
:10194000E4F3983ED4F3869577956795B795F79528
:10195000E7959F5FC1F7FE2B880F911D96958795A0
:1019600097F908950E94CB0B880B990B0895A1E27B
:101970001A2EAA1BBB1BFD010DC0AA1FBB1FEE1F09
:10198000FF1FA217B307E407F50720F0A21BB30B54
:10199000E40BF50B661F771F881F991F1A9469F7D0
:1019A00060957095809590959B01AC01BD01CF012C
:1019B0000895EE0FFF1F0590F491E02D0994F8941F
:1019C000FFCF090807060D0C0B0A3738392F3435BD
:1019D000362A3132332D63303D2B00000000BF0129
:1019E0001F014C010C027D015B016F010000000032
:1019F000EF02AF027E020D0A00427574746F6E2012
:101A000043616E63656C00427574746F6E203100C3
:101A1000427574746F6E203400427574746F6E205A
:101A20003700427574746F6E203000427574746FA5
:101A30006E203200427574746F6E203500427574EA
:101A4000746F6E203800427574746F6E2045717526
:101A5000616C00427574746F6E203300427574744B
:101A60006F6E203600427574746F6E2039004164C9
:101A7000646974696F6E005375627472616374692E
:101A80006F6E004D756C7469706C69636174696F19
:101A90006E004465766573696F6E006E616E0069F5
:081AA0006E66006F766600001F
:107E0000112484B714BE81FFF0D085E080938100F7
:107E100082E08093C00088E18093C10086E0809377
:107E2000C20080E18093C4008EE0C9D0259A86E02C
:107E300020E33CEF91E0309385002093840096BBD3
:107E4000B09BFECF1D9AA8958150A9F7CC24DD24C4
:107E500088248394B5E0AB2EA1E19A2EF3E0BF2EE7
:107E6000A2D0813461F49FD0082FAFD0023811F036
:107E7000013811F484E001C083E08DD089C08234E0
:107E800011F484E103C0853419F485E0A6D080C0E4
:107E9000853579F488D0E82EFF2485D0082F10E0AE
:107EA000102F00270E291F29000F111F8ED06801E7
:107EB0006FC0863521F484E090D080E0DECF843638
:107EC00009F040C070D06FD0082F6DD080E0C81688
:107ED00080E7D80618F4F601B7BEE895C0E0D1E017
:107EE00062D089930C17E1F7F0E0CF16F0E7DF06D8
:107EF00018F0F601B7BEE89568D007B600FCFDCFD4
:107F0000A601A0E0B1E02C9130E011968C91119780
:107F100090E0982F8827822B932B1296FA010C0160
:107F200087BEE89511244E5F5F4FF1E0A038BF0790
:107F300051F7F601A7BEE89507B600FCFDCF97BE46
:107F4000E89526C08437B1F42ED02DD0F82E2BD052
:107F50003CD0F601EF2C8F010F5F1F4F84911BD097
:107F6000EA94F801C1F70894C11CD11CFA94CF0C13
:107F7000D11C0EC0853739F428D08EE10CD085E9AC
:107F80000AD08FE07ACF813511F488E018D01DD067
:107F900080E101D065CF982F8091C00085FFFCCF94
:107FA0009093C60008958091C00087FFFCCF809118
:107FB000C00084FD01C0A8958091C6000895E0E648
:107FC000F0E098E1908380830895EDDF803219F02E
:107FD00088E0F5DFFFCF84E1DECF1F93182FE3DFCA
:107FE0001150E9F7F2DF1F91089580E0E8DFEE27F6
:047FF000FF270994CA
:027FFE00040479
:00000001FF
